{
    "contractName": "Usuario",
    "abi": [
        {
            "anonymous": false,
            "inputs": [
                {
                    "indexed": false,
                    "internalType": "string",
                    "name": "username",
                    "type": "string"
                },
                {
                    "indexed": false,
                    "internalType": "string",
                    "name": "email",
                    "type": "string"
                },
                {
                    "indexed": false,
                    "internalType": "string",
                    "name": "nome",
                    "type": "string"
                },
                {
                    "indexed": false,
                    "internalType": "string",
                    "name": "sobrenome",
                    "type": "string"
                },
                {
                    "indexed": false,
                    "internalType": "string",
                    "name": "rg",
                    "type": "string"
                },
                {
                    "indexed": false,
                    "internalType": "string",
                    "name": "cpf",
                    "type": "string"
                },
                {
                    "indexed": false,
                    "internalType": "string",
                    "name": "telefone",
                    "type": "string"
                },
                {
                    "indexed": false,
                    "internalType": "string",
                    "name": "enderecoJSONString",
                    "type": "string"
                },
                {
                    "indexed": false,
                    "internalType": "string",
                    "name": "password",
                    "type": "string"
                },
                {
                    "indexed": false,
                    "internalType": "bool",
                    "name": "usuarioEstaLogado",
                    "type": "bool"
                }
            ],
            "name": "usuarioCriado",
            "type": "event"
        },
        {
            "inputs": [],
            "name": "contadorUsuario",
            "outputs": [
                {
                    "internalType": "uint256",
                    "name": "",
                    "type": "uint256"
                }
            ],
            "stateMutability": "view",
            "type": "function"
        },
        {
            "inputs": [
                {
                    "internalType": "string",
                    "name": "_email",
                    "type": "string"
                }
            ],
            "name": "deslogarUsuario",
            "outputs": [],
            "stateMutability": "nonpayable",
            "type": "function"
        },
        {
            "inputs": [
                {
                    "internalType": "string",
                    "name": "_password",
                    "type": "string"
                },
                {
                    "internalType": "string",
                    "name": "_email",
                    "type": "string"
                }
            ],
            "name": "fazerLogin",
            "outputs": [
                {
                    "internalType": "bool",
                    "name": "",
                    "type": "bool"
                }
            ],
            "stateMutability": "nonpayable",
            "type": "function"
        },
        {
            "inputs": [
                {
                    "internalType": "string",
                    "name": "",
                    "type": "string"
                }
            ],
            "name": "listaDeUsuarios",
            "outputs": [
                {
                    "internalType": "string",
                    "name": "username",
                    "type": "string"
                },
                {
                    "internalType": "string",
                    "name": "email",
                    "type": "string"
                },
                {
                    "internalType": "string",
                    "name": "nome",
                    "type": "string"
                },
                {
                    "internalType": "string",
                    "name": "sobrenome",
                    "type": "string"
                },
                {
                    "internalType": "string",
                    "name": "rg",
                    "type": "string"
                },
                {
                    "internalType": "string",
                    "name": "cpf",
                    "type": "string"
                },
                {
                    "internalType": "string",
                    "name": "telefone",
                    "type": "string"
                },
                {
                    "internalType": "string",
                    "name": "enderecoJSONString",
                    "type": "string"
                },
                {
                    "internalType": "string",
                    "name": "password",
                    "type": "string"
                },
                {
                    "internalType": "bool",
                    "name": "usuarioEstaLogado",
                    "type": "bool"
                }
            ],
            "stateMutability": "view",
            "type": "function"
        },
        {
            "inputs": [
                {
                    "internalType": "string",
                    "name": "_username",
                    "type": "string"
                },
                {
                    "internalType": "string",
                    "name": "_email",
                    "type": "string"
                },
                {
                    "internalType": "string",
                    "name": "_nome",
                    "type": "string"
                },
                {
                    "internalType": "string",
                    "name": "_sobrenome",
                    "type": "string"
                },
                {
                    "internalType": "string",
                    "name": "_rg",
                    "type": "string"
                },
                {
                    "internalType": "string",
                    "name": "_cpf",
                    "type": "string"
                },
                {
                    "internalType": "string",
                    "name": "_telefone",
                    "type": "string"
                },
                {
                    "internalType": "string",
                    "name": "_endereco",
                    "type": "string"
                },
                {
                    "internalType": "string",
                    "name": "_password",
                    "type": "string"
                }
            ],
            "name": "registrarUsuario",
            "outputs": [],
            "stateMutability": "nonpayable",
            "type": "function"
        },
        {
            "inputs": [
                {
                    "internalType": "string",
                    "name": "_email",
                    "type": "string"
                }
            ],
            "name": "verificarSeUsuarioEstaLogado",
            "outputs": [
                {
                    "internalType": "bool",
                    "name": "",
                    "type": "bool"
                }
            ],
            "stateMutability": "view",
            "type": "function"
        }
    ],
    "bytecode": "60806040526000805534801561001457600080fd5b50610f5f806100246000396000f3fe608060405234801561001057600080fd5b50600436106100625760003560e01c80632bff8344146100675780636b985c2f14610099578063a9767e2c146100bc578063b2a71ba8146100d1578063b8371d15146100e8578063ea536650146100fb575b600080fd5b61007a610075366004610a22565b61010e565b6040516100909a99989796959493929190610aaf565b60405180910390f35b6100ac6100a7366004610b85565b610630565b6040519015158152602001610090565b6100cf6100ca366004610be9565b610787565b005b6100da60005481565b604051908152602001610090565b6100ac6100f6366004610a22565b610919565b6100cf610109366004610a22565b610947565b805160208183018101805160018252928201919093012091528054819061013490610d4e565b80601f016020809104026020016040519081016040528092919081815260200182805461016090610d4e565b80156101ad5780601f10610182576101008083540402835291602001916101ad565b820191906000526020600020905b81548152906001019060200180831161019057829003601f168201915b5050505050908060010180546101c290610d4e565b80601f01602080910402602001604051908101604052809291908181526020018280546101ee90610d4e565b801561023b5780601f106102105761010080835404028352916020019161023b565b820191906000526020600020905b81548152906001019060200180831161021e57829003601f168201915b50505050509080600201805461025090610d4e565b80601f016020809104026020016040519081016040528092919081815260200182805461027c90610d4e565b80156102c95780601f1061029e576101008083540402835291602001916102c9565b820191906000526020600020905b8154815290600101906020018083116102ac57829003601f168201915b5050505050908060030180546102de90610d4e565b80601f016020809104026020016040519081016040528092919081815260200182805461030a90610d4e565b80156103575780601f1061032c57610100808354040283529160200191610357565b820191906000526020600020905b81548152906001019060200180831161033a57829003601f168201915b50505050509080600401805461036c90610d4e565b80601f016020809104026020016040519081016040528092919081815260200182805461039890610d4e565b80156103e55780601f106103ba576101008083540402835291602001916103e5565b820191906000526020600020905b8154815290600101906020018083116103c857829003601f168201915b5050505050908060050180546103fa90610d4e565b80601f016020809104026020016040519081016040528092919081815260200182805461042690610d4e565b80156104735780601f1061044857610100808354040283529160200191610473565b820191906000526020600020905b81548152906001019060200180831161045657829003601f168201915b50505050509080600601805461048890610d4e565b80601f01602080910402602001604051908101604052809291908181526020018280546104b490610d4e565b80156105015780601f106104d657610100808354040283529160200191610501565b820191906000526020600020905b8154815290600101906020018083116104e457829003601f168201915b50505050509080600701805461051690610d4e565b80601f016020809104026020016040519081016040528092919081815260200182805461054290610d4e565b801561058f5780601f106105645761010080835404028352916020019161058f565b820191906000526020600020905b81548152906001019060200180831161057257829003601f168201915b5050505050908060080180546105a490610d4e565b80601f01602080910402602001604051908101604052809291908181526020018280546105d090610d4e565b801561061d5780601f106105f25761010080835404028352916020019161061d565b820191906000526020600020905b81548152906001019060200180831161060057829003601f168201915b5050506009909301549192505060ff168a565b6000826040516020016106439190610d88565b604051602081830303815290604052805190602001206001836040516106699190610d88565b908152602001604051809103902060080160405160200161068a9190610da4565b604051602081830303815290604052805190602001201480156107185750816040516020016106b99190610d88565b604051602081830303815290604052805190602001206001836040516106df9190610d88565b90815260200160405180910390206001016040516020016107009190610da4565b60405160208183030381529060405280519060200120145b1561077d576001808360405161072e9190610d88565b908152604051908190036020018120600901805492151560ff1990931692909217909155600190610760908490610d88565b9081526040519081900360200190206009015460ff169050610781565b5060005b92915050565b6040518061014001604052808a8152602001898152602001888152602001878152602001868152602001858152602001848152602001838152602001828152602001600015158152506001896040516107e09190610d88565b908152604051908190036020019020815181906107fd9082610e69565b50602082015160018201906108129082610e69565b50604082015160028201906108279082610e69565b506060820151600382019061083c9082610e69565b50608082015160048201906108519082610e69565b5060a082015160058201906108669082610e69565b5060c0820151600682019061087b9082610e69565b5060e082015160078201906108909082610e69565b5061010082015160088201906108a69082610e69565b5061012091909101516009909101805460ff19169115159190911790556040517f2a890078025cbe5e8f38de5a5307a6d16a8b59eb53cb7f9a29a822212b2cab3090610906908b908b908b908b908b908b908b908b908b90600090610aaf565b60405180910390a1505050505050505050565b600060018260405161092b9190610d88565b9081526040519081900360200190206009015460ff1692915050565b60006001826040516109599190610d88565b908152604051908190036020019020600901805491151560ff1990921691909117905550565b634e487b7160e01b600052604160045260246000fd5b600082601f8301126109a657600080fd5b813567ffffffffffffffff808211156109c1576109c161097f565b604051601f8301601f19908116603f011681019082821181831017156109e9576109e961097f565b81604052838152866020858801011115610a0257600080fd5b836020870160208301376000602085830101528094505050505092915050565b600060208284031215610a3457600080fd5b813567ffffffffffffffff811115610a4b57600080fd5b610a5784828501610995565b949350505050565b60005b83811015610a7a578181015183820152602001610a62565b50506000910152565b60008151808452610a9b816020860160208601610a5f565b601f01601f19169290920160200192915050565b6000610140808352610ac38184018e610a83565b90508281036020840152610ad7818d610a83565b90508281036040840152610aeb818c610a83565b90508281036060840152610aff818b610a83565b90508281036080840152610b13818a610a83565b905082810360a0840152610b278189610a83565b905082810360c0840152610b3b8188610a83565b905082810360e0840152610b4f8187610a83565b9050828103610100840152610b648186610a83565b915050610b7661012083018415159052565b9b9a5050505050505050505050565b60008060408385031215610b9857600080fd5b823567ffffffffffffffff80821115610bb057600080fd5b610bbc86838701610995565b93506020850135915080821115610bd257600080fd5b50610bdf85828601610995565b9150509250929050565b60008060008060008060008060006101208a8c031215610c0857600080fd5b893567ffffffffffffffff80821115610c2057600080fd5b610c2c8d838e01610995565b9a5060208c0135915080821115610c4257600080fd5b610c4e8d838e01610995565b995060408c0135915080821115610c6457600080fd5b610c708d838e01610995565b985060608c0135915080821115610c8657600080fd5b610c928d838e01610995565b975060808c0135915080821115610ca857600080fd5b610cb48d838e01610995565b965060a08c0135915080821115610cca57600080fd5b610cd68d838e01610995565b955060c08c0135915080821115610cec57600080fd5b610cf88d838e01610995565b945060e08c0135915080821115610d0e57600080fd5b610d1a8d838e01610995565b93506101008c0135915080821115610d3157600080fd5b50610d3e8c828d01610995565b9150509295985092959850929598565b600181811c90821680610d6257607f821691505b602082108103610d8257634e487b7160e01b600052602260045260246000fd5b50919050565b60008251610d9a818460208701610a5f565b9190910192915050565b6000808354610db281610d4e565b60018281168015610dca5760018114610ddf57610e0e565b60ff1984168752821515830287019450610e0e565b8760005260208060002060005b85811015610e055781548a820152908401908201610dec565b50505082870194505b50929695505050505050565b601f821115610e6457600081815260208120601f850160051c81016020861015610e415750805b601f850160051c820191505b81811015610e6057828155600101610e4d565b5050505b505050565b815167ffffffffffffffff811115610e8357610e8361097f565b610e9781610e918454610d4e565b84610e1a565b602080601f831160018114610ecc5760008415610eb45750858301515b600019600386901b1c1916600185901b178555610e60565b600085815260208120601f198616915b82811015610efb57888601518255948401946001909101908401610edc565b5085821015610f195787850151600019600388901b60f8161c191681555b5050505050600190811b0190555056fea264697066735822122096b5fca081c3686e376b4cd6461d64c2e7730bc580442649a32aee4e86679e7e64736f6c63430008110033",
    "sourcePath": "/Users/matheussantos/Desktop/Universidade/tcc/tcc2/contracts/contracts/Usuario.sol",
    "compiler": {
        "name": "solc",
        "version": "0.8.17+commit.8df45f5f"
    },
    "functionHashes": {
        "contadorUsuario()": "b2a71ba8",
        "deslogarUsuario(string)": "ea536650",
        "fazerLogin(string,string)": "6b985c2f",
        "listaDeUsuarios(string)": "2bff8344",
        "registrarUsuario(string,string,string,string,string,string,string,string,string)": "a9767e2c",
        "verificarSeUsuarioEstaLogado(string)": "b8371d15"
    },
    "gasEstimates": {
        "creation": {
            "codeDepositCost": "787000",
            "executionCost": "5824",
            "totalCost": "792824"
        },
        "external": {
            "contadorUsuario()": "2339",
            "deslogarUsuario(string)": "infinite",
            "fazerLogin(string,string)": "infinite",
            "listaDeUsuarios(string)": "infinite",
            "registrarUsuario(string,string,string,string,string,string,string,string,string)": "infinite",
            "verificarSeUsuarioEstaLogado(string)": "infinite"
        }
    }
}